:020000040800F2
:10000000B82D002049460008D5440008D744000810
:10001000D9440008DB440008DD440008000000006B
:10002000000000000000000000000000DF440008A5
:10003000E144000800000000E3440008E544000833
:100040006146000865460008694600086D460008DC
:100050007146000875460008794600087D4600088C
:100060008146000885460008894600088D4600083C
:100070009146000895460008994600089D460008EC
:10008000A1460008A5460008A94600080000000097
:10009000000000000000000000000000E94400082B
:1000A000AD460008B1460008B5460008B94600084C
:1000B000BD460008C1460008C5460008FD440008CA
:1000C000C9460008CD460008D1460008D5460008BC
:1000D000D9460008DD460008E1460008000000009F
:1000E000E5460008E9460008ED460008000000006B
:1000F000000000000000000000000000F1460008C1
:1001000000000000F5460008F9460008FD4600081A
:1001100000000000000000000000000000000000DF
:100120000147000805470008094700080D47000877
:10013000114700080000000000000000000000005F
:10014000000000000000000000000000034500085F
:1001500015470008194700081D47000821470008F7
:1001600025470008294700080000000000000000A3
:10017000000000000000000000000000000000007F
:10018000000000002D4700080000000000000000F3
:1001900031470008F8B5040022D004F13C05697825
:1001A00021B900202870204600F0E4FD2421697068
:1001B00000F09BF82068016841F40041016020686C
:1001C000026822F40042026000F0A3FE014660686B
:1001D000DFF8F420904205D2DFF8F030994205D2E2
:1001E0000120F2BDDFF8E8008142F9D32068DFF892
:1001F000E4304668B1FBF3F3B60943EA861646607D
:100200002668376A6068904206D34FF4967043437D
:100210004FF47A70B3FBF0F35B1CBF0943EA87131A
:100220003362491E2368DE696768974206D27F0001
:1002300000F043F8042913D2042111E0A06820B98A
:1002400007EB470700F039F805E01920474300F0B5
:1002500034F841F4804108050CBF012141F400410C
:10026000DFF8740006400E43DE6122681368E1691E
:10027000206A23F0C0030B43034313602268DFF8B6
:100280005C00936821690340E0680B43034393607B
:100290002168CA68A3696069120A034343EA02221B
:1002A000CA602068016841F00101016000206860B7
:1002B000202169702063A870F2BDB1FBF7F1491CE1
:1002C000C1F30B0170470000A186010080841E006D
:1002D00000093D0040420F000030FFFF007CFFFF9F
:1002E0000098401E009000987047206802685208ED
:1002F000520002607047416841F48051416070478C
:100300002DE9FC41044604F13C052268DFF86069F0
:100310005168E06AAB7895F801C00027102B18BF30
:10032000402B40F033829769D2F814C05FEACC7E4C
:1003300005D4B0F52A0F18BFB0F12A4F47D05FEAB5
:10034000CC7045D5880543D5E06AB0F52A0F08BFC3
:10035000012104D0E06AB0F12A4F01D10821E16205
:10036000A878402809D168690028A8681ABF40F019
:100370000100C0B200F0FE0028E02069B0F5804F17
:1003800016D168782128A8680EBF00F0FE0040F062
:100390000100C0B21061606B00281CBFC06B002858
:1003A0002AD1A06B00281CBFC06B00280FD023E00F
:1003B000686920B900F0ECFA40F0F00006E06869E6
:1003C000012804D100F0E4FA40F0F1001061DDE210
:1003D0005FEA0C7015D5880513D5A868C0B2106106
:1003E000606B00281CBFC06B002805D1A06B0028E3
:1003F0001CBFC06B0028EAD02068416841F400614E
:100400001EE15FEA8C7000D5880540F19D80AB78D5
:10041000E16A276B6878222840F08E80686900289E
:1004200008BF402B07D100210091536900939169C7
:100430000091009AAAE26869002804BF2069B0F51B
:10044000404F08D100F0B6FA40F480700860686947
:10045000401C68619AE2608D28B900F0ABFA40F464
:100460000070086065E0608D012834D1B14210D180
:10047000106820F48060106021684868020503D588
:10048000084600F000FB4FE0002200924B69009309
:100490000DE0082918BF202903D0122F0DD1012902
:1004A00010D0116821F48061116000F0E5FA8969CB
:1004B0000091009800F098FA3BE004291CBF022943
:1004C000102903D0116821F4806102E0116841F421
:1004D0008061116028E0628D022A11D104291CBFBD
:1004E0000229102906D000F09FFA2068026842F421
:1004F000006203E02068026842F48062026004E067
:100500002268136843F4806313602068426813050F
:100510000AD5B14218BF012904D008291CBF1029EF
:10052000202901D1FFF7E7FE00F0A6FA89690091C2
:1005300000980021696129E200230093516900912C
:1005400092690092009921E27F070CF004005ED5C9
:1005500057683F05F7D45FEA0C6732D54F0530D5B1
:1005600000282ED16978AB78E76A208D002808BF73
:10057000212917D1082F1CBF202FB74204D000F02B
:1005800012FA0022AA7033E000F05CFAA878402842
:1005900006D10021A9702046BDE8F64100F0DABC82
:1005A00000202AE0212903D0402B08BF222903D1B3
:1005B000608D10B900F0F2F9E8E1A878402822D067
:1005C000B2E10028F8D08805F6D5102B1BD1E16ADE
:1005D00068782128F0D1608D08B100F0A5B908290C
:1005E0001CBF2029B14206D000F0DDF90020A87020
:1005F0002021697002E000F025FAA8702046BDE8CD
:10060000F64100F0A8BC2046BDE8F64140E2536840
:100610001E0516D45FEA4C6366D54E0564D50028E6
:1006200062D1687822280CD1608D04280AD300F0AA
:10063000D1F9608D032804D12068416821F48061DC
:100640004160A3E1E16A0229FBD0012818BF00281C
:10065000F7D10020DFF8E816009019200B68B3FBF3
:10066000F0F04FF47A76B0FBF6F606EB86060096CD
:100670002146FFF735FE20B10B6818688405F8D4D1
:100680001AE0686840F020006860506820F4E0607C
:1006900050600A6810694A6A1070486A431C4B62CD
:1006A0002023488D421E4A856B700020A8700846A2
:1006B000BDE8F64100F050BC0C46196821F4806199
:1006C000196000F0BFFA00F0B5F9202200F088F9B7
:1006D0006A70A878402850D10021A9702163204673
:1006E000BDE8F64100F039BC0028AAD08805A8D59D
:1006F000E06A618D042904D100F050F9216808698D
:100700003DE1618D032910D15168042821F48061F5
:1007100018BF0228516001D000F0A2F920680169D9
:10072000606A0170616A4A1C2DE1618D022940F006
:100730002581012818BF10280AD0042818BF0228D4
:1007400007BF116841F48061116841F4007102E053
:10075000116821F48061116000F06CF900F040F93B
:10076000226800F037F92068416821F44071416047
:1007700020206870A9784029AED00020A8701221EE
:1007800021632046BDE8F64100F0E8BB686800B987
:1007900097695369980722D5880520D5686800B104
:1007A00097696878002100F02800282811D100F00E
:1007B000F5F8780758BF0121380654BFE268A269EE
:1007C0000020287002B02046BDE8F04192B200F04F
:1007D000C6BB6FF00201516100202870D6E0DF0631
:1007E00074D5880572D56F78506820F4E060506049
:1007F00000210091206841690091206800F0FAF81A
:1008000000F02EF921684868020528D5222F18BF6C
:100810002A2F0FF2614810D0606B00F0F1F8606B86
:1008200000F0B0FB01281AD0606BC0F85080606BFC
:1008300000F096FB98B1606B0FE0A06B00F0E0F861
:10084000A06B00F09FFB012809D0A06BC0F850807E
:10085000A06B00F085FB10B1A06B016D8847608D27
:1008600098B1206841694A0702D5006900F0B3F8E1
:10087000206841694A0602D5006900F0ACF8608D35
:1008800018B1686840F004006860686818B12046D4
:10089000BDE8F64154E12A2F05D120632821697073
:1008A000204600F072FB6878282807D1E66200F045
:1008B000DDF82046BDE8F64100F068BB206B222839
:1008C00018BF222F62D100F0D1F84DE0BCF1210F0A
:1008D00018BFBCF1290F03F004002CD11B061CD556
:1008E0004E051AD5C8B96978608D00284ED0606A67
:1008F00003781361606A421C626200F065F808BF09
:10090000292943D100F08AF8212020632821697029
:100910002046BDE8F64100F03ABB002836D08905F4
:1009200034D5608D002831D0606A01781161606A29
:10093000411C616228E05B061BD54E0519D5C0B984
:100940006978608D10B31069626A1070606A431C28
:10095000636200F039F808BF2A2917D100F05EF869
:1009600022202063282169702046BDE8F64100F06E
:100970000CBB58B1890509D5608D38B11069616A21
:100980000870606A421C626200F02AF8BDE8F381D8
:10099000A8680004C00D00F006007047506820F4FD
:1009A000806050607047506820F4E0605060112112
:1009B0002163704700210091536900939169009170
:1009C000009A216808687047608D421E6285608DBC
:1009D000002870471069616A0870606A421C626290
:1009E000608D411E6185704721680A6842F400727B
:1009F0000A607047026842F0010202600098704786
:100A0000026853686385608D18B1686840F004001F
:100A10006860486820F4006048607047206841685A
:100A200021F48061416070472068026822F480628E
:100A30000260704720680169606A0170616A4A1C3F
:100A400062627047506820F4E0605060206801687E
:100A500041F400710160002020632021697070471B
:100A60002068016821F480610160704700202063E4
:100A700020216970A87070470020009021684A69A1
:100A8000009270473068016821F48061016070470E
:100A900010B500F13D0300F148021C78916889B956
:100AA00000685168012905D11368DBB203619068C1
:100AB000801C05E011680904090E01619068401C62
:100AC000906010BD9168012907D113680068DBB2FE
:100AD00003619168491C916010BD916802292ED173
:100AE000222C05D101680A6842F480720A6010BDA8
:100AF000418D61B1212C0AD1416A03680A781A61DB
:100B0000416A4A1C4262418D4A1E428510BD418D98
:100B1000002908BF212C12D101684A6822F4E06242
:100B20004A6001680A6842F400720A6000210163A9
:100B300020221A705970BDE8104000F00BBA10BDA9
:100B400038B5044604F13D0528786978102914BFAA
:100B50004029222804D121680A6822F400620A6030
:100B600000F02801282903D10020206329700BE020
:100B7000226851680A0505D4602803D02020287017
:100B80000021697000202063206841680A0523D590
:100B9000416821F400614160606B0FF2D90190F867
:100BA0003520012A09D00165606B00F0D9F90028D1
:100BB00025D000F054F8606B0BE0A06B0165A06BD2
:100BC00000F0CEF9D8B1206800F032F800F047F814
:100BD000A06B016D884712E02A78602A0AD1202193
:100BE00029700022226400F023F800F031F800F0B0
:100BF000CFF904E000F01CF8204600F0ADF9206CBD
:100C000010F00F0F01D000F01DF82878216C4A0772
:100C10000DD528280BD11648E06200212163202041
:100C2000287069702046BDE8324000F0AFB931BD90
:100C300041694A0605D50069616A0870606A421C0C
:100C4000626270472068416821F4E061416070474A
:100C50002068016849084900016020467047206803
:100C60000168490849000160202028707047000091
:100C70000000FFFF7CB5002100911925816B3048F1
:100C800001F13D024FF47A7613780468B4FBF5F570
:100C9000B5FBF6F6232046430096009838B100983D
:100CA000401E00900C6820688505F6D403E0086CAF
:100CB00040F020000864486B08B10024C463886BCE
:100CC00008B10024C4630868046824F480640460E4
:100CD00000204885486B08B100240465886B08B182
:100CE00000240465086804686408640004601078DF
:100CF000602809D120231370002454700C64084626
:100D0000BDE8764000F044B903F02803282B0ED14B
:100D10000868036843F00103036028230868046837
:100D200044F48064046000200863137003E0202012
:100D30001070002454700846BDE8764000F00CB9ED
:100D40000C000020294A2A482A4980B54260002325
:100D50004FF4804201608360C3600261436183613C
:100D6000C3610362FFF716FA18B1BDE8014000F055
:100D700077B901BD10B586B004461422002101A840
:100D800000F070F921681B4881422CD100221A4CD6
:100D900000921222206840F002002060216801F0D9
:100DA00002010091C0210098144801910292012192
:100DB0000391032204210591049201A900F05CF93A
:100DC000002000900022216941F4001121610021DE
:100DD000206900F40010009000981F2000F056FADF
:100DE0001F2000F070FA06B010BD0000801A060047
:100DF000D41C00200054004030380240000402405F
:100E00002DE9F04104000F4654D04B4E306800F0FD
:100E10000700B84202D200F073F84BD12068474D6A
:100E2000810712D5400703D5A96841F4E051A960B4
:100E30002078010703D5A86840F46040A860A9683D
:100E4000A06821F0F0010143A9602178C80729D5E5
:100E50006068012802D129688A0305E0022818BFCA
:100E6000032803D129688A0103D423E029688A076B
:100E700020D5A968890840EA8100A86000F04EFAF0
:100E80008046A868616800F00C00B0EB810F09D0C3
:100E900000F044FAA0EB080041F289318842F0D317
:100EA00003202BE0306800F00700874204D200F0F6
:100EB00027F801D0012021E02078410705D5AA6854
:100EC000E06822F4E0520243AA602178080706D5C0
:100ED000A968206921F4604141EAC001A96000F0DD
:100EE00023FAAA681649174BC2F30312895CC8405B
:100EF00018601548006800F03BFA0020BDE8F0815A
:100F00003770316801F00701B94270470D48006839
:100F100070470C480D4A006813680D49C3F38222DC
:100F200006E00848094A006813680949C3F34232D9
:100F3000895CC84070470000003C02400038024015
:100F4000D44500080C0000200800002008380240AA
:100F500058460008704770477047704770477047A1
:100F600090F83510022903D0802242650120704795
:100F7000052180F8351000680268520852000260AE
:100F80000020704790F835007047704770477047F1
:100F90007047000080B500F00BFA00F00DF800F08B
:100FA00021FAFFF7CFFE00F019FB00F073FB00F011
:100FB0009BFB00F0EBFBFEE780B592B0302106A86A
:100FC00000F082FC142101A800F07EFC00200090BB
:100FD0004FF480332048016841F0805101600021C6
:100FE000006800F08050009000981C480091026852
:100FF00022F4404242F4004202600122006800F400
:101000004040009006A80099069202214FF4800209
:101010000C910D92102190220E910F920221032229
:1010200007931091119200F053FC08B172B6FEE7DD
:10103000022102910F204FF480510190002204916F
:1010400003920592022101A8FFF7DAFE08B172B6F9
:10105000FEE713B000BD00004038024000700040C1
:1010600072B6FEE710B5044610460A460146204611
:1010700000F0BCFD204610BD2DE9F84F0D460026BE
:101080006C496D4A0F23044601202F68B04000EAE6
:101090000708804540F0BA804FEA460C032707FA5C
:1010A0000CF76FEA070E6F6807F00309B9F1010F3B
:1010B0001CBF07F00307022F12D1A768D5F80C90C8
:1010C0000EEA070709FA0CF949EA0707A7606768FB
:1010D00027EA00006F68C7F30017B7403843606025
:1010E000B0002F7907F00307032F21D0E768D5F868
:1010F00008900EEA070709FA0CF949EA0707E760C2
:101100002F7907F00307022F12D1F70804EB8707A6
:1011100000F01C09D7F820A003FA09FB2AEA0B0A01
:10112000D5F810B00BFA09F949EA0A09C7F8209076
:1011300027680EEA070E2F7907F0030707FA0CF766
:1011400047EA0E0727606F68FF005FD5002700970A
:101150004FEA960C176847F48047176000F00C00C0
:10116000176807F48047009703FA00FE009F334F8B
:1011700057F82C7027EA0E0E314FBC4208BF0027EB
:1011800013D0304FBC4208BF01270ED02E4FBC42B7
:1011900008BF022709D02D4FBC4208BF032704D047
:1011A0002B4FBC420CBF0427072707FA00F0234F40
:1011B00040EA0E0047F82C006FEA08000F6800EACA
:1011C000070C6F68FF0348BF48EA0C0CC1F800C069
:1011D0004F6800EA070C6F68BF0348BF48EA0C0C71
:1011E000C1F804C08F6800EA070C6F68FF0248BFAF
:1011F00048EA0C0CC1F808C0CF6800EA070C686820
:10120000800248BF48EA0C0CC1F80CC0761C0F2EB7
:101210007FF63AAFBDE8F18F02B9090481617047EA
:101220000C4A136803421CBF106000F012BD7047E7
:1012300000000000003C01404438024008380140F2
:10124000000002400004024000080240000C02407E
:1012500000100240143C01400901020002D4294858
:1012600081547047284B02F00F021A4402F8041C04
:101270007047264B19684FF6FF020002114000F438
:10128000E0600843224908431860704770B51F4B5F
:101290001C68C4F302230124C3F10705052D2EBFEA
:1012A0000F2504FA05F56D1E1E1D072E34BF002301
:1012B000DB1E2940994004FA03F3BDE870405B1E31
:1012C0001A401143C8E7010007D4012200F01F01B2
:1012D000104B8A40400943F82020704710B5401E4B
:1012E000B0F1807F01D3012010BD0B4C60600F2155
:1012F0004FF0FF30FFF7B0FF0021A1600720206012
:10130000002010BD00E400E018ED00E00CED00E06E
:101310000000FA0500E100E010E000E0014840684C
:10132000704700BF000000202DE950410E4C60685E
:1013300000F00C00082814D12268206820680B4EA9
:10134000C0F3881802F03F020023A6FB080100F05A
:1013500081FC2168C1F30141491C4900B0FBF1F057
:1013600000E00248BDE85081043802400024F40047
:1013700038B50D4D0D4B2A7804464FF47A71186834
:10138000B1FBF2F2B0FBF2F0FFF7A8FF50B9102C5E
:1013900008D2002221464FF0FF30FFF777FFAC6004
:1013A000002032BD012032BD000000200C000020D2
:1013B00080B50B48016841F400710160026842F495
:1013C00080620260016841F4807101600320FFF7D0
:1013D00050FF0020FFF7CCFF00F0C0FC002002BD52
:1013E000003C02402DE9F04186B0142200216846FD
:1013F000FFF738FE00216948694C6A4D6A4E6B4F11
:10140000DFF8AC810591026842F00402026000221C
:10141000016801F0040100F0D3F843F08003036099
:10142000016801F0800100F0CBF843F00203036093
:10143000016801F0020100F0C3F843F010030360FB
:10144000016801F0100100F0BBF843F008030360ED
:10145000016801F0080105910599059201220368D0
:1014600043F0010303604FF40051006800F00100F5
:10147000059005982046FFF7CFFE00224FF400416B
:101480002046FFF7C9FE002202212846FFF7C4FECE
:1014900000224FF460713046FFF7BEFE01224FF488
:1014A00090512846FFF7B8FE002248F20331384633
:1014B000FFF7B2FE00224FF400714046FFF7ACFE8A
:1014C000012204213846FFF7A7FE4FF4204100F027
:1014D0007CF82046FFF7D0FD4FF4804000210090BB
:1014E0000191029120466946FFF7C6FD022100F0F6
:1014F0006CF800F062F84FF4607100910122002155
:1015000001920291039130466946FFF7B5FD002133
:10151000019102914FF48064009400F04DF84FF473
:101520009051009101220192002102910322039225
:1015300000F042F848F2073100F047F83846FFF76C
:101540009BFD4FF4C040002100900191029138466C
:101550006946FFF791FD4FF4007100F036F8404600
:10156000FFF78AFD002101910291009469464046EF
:10157000FFF782FD4FF490700E4900900191002218
:10158000029200F019F8002200211720FFF77EFEDA
:101590001720FFF798FE06B0BDE8F0813038024012
:1015A000000802400004024000100240000C02400B
:1015B000000002400000111069462846FFF75CBD9C
:1015C0000591059905920368704700910122002159
:1015D00002910391019269467047000080B5294845
:1015E000294901604FF48272012142604161022267
:1015F00008210261C16100234FF400720A21836057
:10160000C3608261036243628362C16200F0C2FB15
:1016100018B1BDE80140FFF723BD01BD10B586B08C
:1016200004461422002101A8FFF71CFD216816487A
:10163000814224D1002215480092016941F4804181
:101640000161016901F480410091009900924FF419
:101650006041036843F0020303600222006800F067
:101660000200009000980A48019102920021039123
:10167000032205210591049201A9FFF7FDFC06B0A4
:1016800010BD00007C1C00200038004030380240B3
:101690000004024010B5104C10490022204600F012
:1016A000DDFB08B1FFF7DCFC0D49204600F0E9FB4B
:1016B00008B1FFF7D5FC0B49204600F075FE08B1D4
:1016C000FFF7CEFC204600F0EDFB18B1BDE810405E
:1016D000FFF7C6BC10BD00BF8C15002034010020F0
:1016E0001C0000202001002080B52448244901600E
:1016F0004FF4E13200230C2142608360C360036138
:1017000041618361C36100F07DFE18B1BDE8014015
:10171000FFF7A6BC01BD10B586B004461422002117
:1017200001A8FFF79FFC21681548814223D10022C0
:1017300014480092016941F400310161016901F42A
:1017400000310091009900926021036843F0080382
:1017500003600222006800F00800009000980A4828
:101760000191029200210391032207210591049225
:1017700001A9FFF781FC06B010BD0000701D00201C
:101780000044004030380240000C024018B58DB0D3
:101790001022002109A8FFF765FC082200216846F5
:1017A000FFF760FC1C22002102A8FFF75BFC414C04
:1017B0004148206048214FF47A700022E060616067
:1017C000A2602261A261204600F0BCFE08B1FFF7D2
:1017D00047FC4FF48050099009A9204600F047FFCC
:1017E00008B1FFF73DFC204600F0CCFE08B1FFF742
:1017F00037FC0021009101912046694601F0B0F8C4
:1018000008B1FFF72DFC602102914FF42F72039273
:10181000002104910022069202A9204600F0C7FE92
:1018200008B1FFF71DFC042202A9204600F0BFFE0C
:1018300008B1FFF715FC204600F015F80EB010BDFA
:1018400081B000681C4988420BD100221B480092DD
:10185000016841F002010160006800F002000090A0
:10186000009801B0704710B586B0044614220021DC
:1018700001A8FFF7F7FB21680F48814218D1002229
:101880000F4800920222016841F004010160C0216A
:10189000006800F00400009000980A48019102924C
:1018A0000021039104910221059101A9FFF7E4FBB6
:1018B00006B010BD281D0020000400404038024042
:1018C0003038024000080240002201F085B80000D4
:1018D0002DE9F843040016D02078DFF80063C10733
:1018E00013D5B06800F00C00042807D0B06800F0F1
:1018F0000C0008283DD1706841023AD53068810358
:1019000003D56068002800F063812078B44F810718
:1019100019D5B06810F00C0F07D0B06800F00C00BB
:1019200008285BD17068410258D43068810703D51C
:10193000E068012840F04C813168206921F0F8010D
:1019400041EAC00131602178080779D56069A5496D
:10195000002868D001220A60FFF7E0FC0546706F9E
:1019600081076DD4FFF7DAFC401B0228F7D903206A
:1019700031E16068B0F5803F04D1306840F48030D8
:10198000306011E0B0F5A02F306806D140F480201F
:101990003060316841F4803105E020F480303060FF
:1019A000316821F480213160606858B1FFF7B6FCDE
:1019B000054630688103A8D4FFF7B0FC401B6528BA
:1019C000F7D3D4E7FFF7AAFC0546306881039CD51E
:1019D000FFF7A4FC401B6528F7D3C8E7E068A8B16F
:1019E00001213960FFF79AFC05463068810705D46C
:1019F000FFF794FC401B0228F7D9B8E7306821694B
:101A000020F0F80040EAC10030609CE73860FFF742
:101A100085FC05463168880795D5FFF77FFC401B9C
:101A20000228F7D9A3E70860FFF778FC0546706F36
:101A3000810705D5FFF772FC401B0228F7D996E70E
:101A4000207841075FD5306C0025C1000AD400958D
:101A50000125316C41F080513164306C00F08050D0
:101A600000900098DFF88081D8F80000C10513D4F9
:101A7000D8F8000040F48070C8F80000FFF74EFC72
:101A80008146D8F80000C10506D4FFF747FCA0EB5B
:101A900009000228F5D96AE7A068012805D00528C1
:101AA000306F06D140F004003067306F40F0010025
:101AB00005E0400840003067306F20F004003067D8
:101AC00041F28938A06860B1FFF728FC8146306F89
:101AD000810713D4FFF722FCA0EB09004045F6D3A1
:101AE00045E7FFF71BFC8146306F810706D5FFF7FE
:101AF00015FCA0EB09004045F6D338E71DB1306C6A
:101B000020F080503064A069002863D0B16801F0F3
:101B10000C0108293AD002282AD100203866FFF7A4
:101B2000FDFB05463068810105D5FFF7F7FB401B3B
:101B30000228F7D91BE7E069216A626A0843A16AB3
:101B4000490840EA8210491E40EA0140E16A40EA41
:101B50000160706001203866FFF7E0FB04463068E2
:101B6000810137D4FFF7DAFB001B0228F7D9FEE624
:101B700000203866FFF7D2FB04463068810129D582
:101B8000FFF7CCFB001B0228F7D9F0E601281FD095
:101B90007068E26900F48001914202BF00F03F01E9
:101BA000226A914201BF47F6C0710140626AB1EBFF
:101BB000821F0DD1A26A520800F44031521EB1EBCF
:101BC000024F02BF00F07060E16AB0EB016F01D01C
:101BD000012000E00020BDE8F28300BF0038024091
:101BE00000004742800E47420070004062F30F221F
:101BF00062F31F42401810F0030308D0C91A1FD324
:101C0000DB0748BF00F8012D28BF20F8022D130084
:101C100030B414461546103928BF20E93C00FAD8E4
:101C2000490728BF20E90C0048BF40F8042D89006F
:101C300028BF20F8022D48BF00F8012D30BC7047A6
:101C4000C91818BF00F8012DCB0728BF00F8012DD7
:101C500070477047D3BBD9B1B2F5803F5BD2022A3F
:101C60001ED98C46B1FBF2F102FB11C31B0443EAFF
:101C70001043B3FBF2FC02FB1C3380B240EA034387
:101C8000B3FBF2F002FB103240EA0C400023704735
:101C9000022A05D98446B0FBF2F002FB10C270475D
:101CA0004AB105D100F0010249085FEA30007047EF
:101CB00000220023704700F0A9BE0B0002000021A3
:101CC00000207047F7D3002200237047904271EB49
:101CD000030CF2D370B5B1FA81F4B3FA83F52C1B7F
:101CE000A340C4F1200532FA05F63343A2405FF069
:101CF0000046E64002E05B085FEA3202841A71EBBC
:101D0000030524BF204629467641F4D302000B0088
:101D10003000002170BD70B5B1FA81F4B2FA82F5DD
:101D2000C4F120046419B4F12006DAD3B2405FF0A4
:101D30000044F440002502E052085FEA3303C61A6B
:101D400071EB020E24BF3046714664416D41F3D3FE
:101D500002000B002000290070BD000081B00020AF
:101D6000009000220A48416841F480414160416886
:101D700001F48041009100990092036843F0805380
:101D80000360006800F080500090009801B0704738
:101D90004038024038B5040001D1012032BD606AEC
:101DA00028B900F051F805D00021E16102E00020DF
:101DB000206160610020A06204F15005687820B9BC
:101DC000002129702046FFF729FC0220687000F0EE
:101DD0003FF86068A168E26800F4827001F4044191
:101DE0000843217C02F400621043227D01F00201CD
:101DF0000843A16902F001021043227F01F400713F
:101E0000084394F8201002F038021043A26A01F04F
:101E100080010843216802F4005210430860A06961
:101E200094F824102268000C00F0040001F0100166
:101E3000084350602068C16921F40061C16100203D
:101E400068600121697032BD6068B0F5827F7047BB
:101E50002068016821F040010160704710B508B9A1
:101E6000032010BD00F527730024DC615C621C6355
:101E700001B19961012119700270BDE8104000F0B4
:101E800061BE1CB50022ADF8002009B9032016BDC3
:101E900000F52E742160C96A11B1684688476061F7
:101EA000002016BD00F07BBE80B5D0F8B83203220A
:101EB00013B11A6890470246104602BD80B5D0F8AB
:101EC000B8220AB152689047002002BD38B50446D6
:101ED00004F2AA25284601F0CFF804F52570012167
:101EE0000160828B817D426011F01F0003D00228C7
:101EF0000DD006D311E029462046BDE8344000F05D
:101F0000B5BE29462046BDE8344000F0FABF294658
:101F10002046BDE8344001F01AB82046BDE8344000
:101F200001F0800100F054BE38B5044610460A00A6
:101F300004F525731FD1196803290ED104F5AE717C
:101F40004A680D68AA420AD2AD1A0D609542014650
:101F500038BF2A46204601F0ECF8002032BD187A3E
:101F6000032804D1586A016909B1204688472046F0
:101F700001F0E7F8F1E7187A0328EED1586A826990
:101F8000002AEAD0204690470100E6D032BD38B59D
:101F9000044610460A0004F5257538D1296802293F
:101FA0002ED1E269216A914206D2521AE2610146BB
:101FB000204601F0ACF80DE013D1A069884210D39F
:101FC000696888420DD200220021204601F09FF866
:101FD00000206860002300220021204600F01FFE40
:101FE0000EE0287A032804D1686AC16809B1204646
:101FF00088478021204600F0EBFD204601F0A8F83C
:10200000287B012804BF00212973002032BD287AD3
:102010000328FAD1686A4269002AF6D02046904720
:102020000100F2D032BD10B5044604F5257001213F
:10203000017200220260002363600261416A09B9F3
:10204000032010BD806A00281CBF4A68002A02D005
:10205000002120469047402300220021204600F026
:10206000A6FD04F5B070012140228180026040236A
:1020700000228021204600F09AFD0120A08440210A
:102080002162002010BD01740020704700F5277008
:1020900004220178417002700020704700F527701B
:1020A0000178042904BF417801700020704780B591
:1020B00000F52772D16909B9032002BD1278032AFD
:1020C00002D1C96901B18847002002BD80B500F581
:1020D0002773DA690AB9032002BD1B78032B02D1EA
:1020E000126A02B19047002002BD80B500F5277347
:1020F000DA690AB9032002BD1B78032B02D1526AA8
:1021000002B19047002002BD0020704780B500F565
:10211000277101220A70CA691AB141685268C9B2AE
:102120009047002002BD0000F8B505464FF4077047
:1021300000F07FFD040005F52F7602D1306002200B
:10214000F2BD346005F14C07287C40B94FF40073B0
:1021500000F032F8012028874FF4007305E0402397
:1021600000F02AF801202887402302220121284676
:1021700000F01DFD0120A5F87801102179800823C9
:1021800003228221284600F012FD01203880716868
:102190000A68904704F50171002008614861287CB5
:1021A0000A6800280CBF4FF4007340230121284621
:1021B00000F035FD0020F2BD02228121284600F00A
:1021C000F6BC38B50446812100F0FCFC04F138056A
:1021D000002028800121204600F0F4FC0020A4F813
:1021E00078018221204600F0EDFC0020A882E882E0
:1021F00004F52F74206838B160684168884720680A
:1022000000F024FD00202060002032BDF8B5054616
:1022100005F527730E461C6A00218DF80010ADF8F5
:10222000021000270CB90320F2BD317811F06000D4
:1022300024D020283ED1F2887078D2B109060DD57D
:102240005B6AD3F808C02146E047F288082A28BF15
:1022500007222146284600F052FF30E004F50071C5
:102260000870F08848702146F288284600F057FF31
:1022700025E05B6A9C683146A04720E0707830B169
:1022800001281CD00A2809D00B2810D012E0197898
:1022900003290FD102220DF1020104E0187803286E
:1022A00008D101226946284600F029FF07E0187886
:1022B000032804D03146284600F0F3FE03273846B1
:1022C000F2BDF8B5044604F52F739E681D680DB97C
:1022D0000320F2BD0F46142010FB07F004EB000CA6
:1022E000DCF8180080B11C225743F219526CB0FB85
:1022F000F2F602FB160038B9CCF8180000230022D1
:10230000204600F086FC0BE005F502700022C2605A
:102310005B681B6923B10A46006805F5047198479C
:102320000020F2BD70B500F52F752C680CB90320A4
:1023300070BD04F5017600F078FCB06004F503711F
:102340006A683068D3689847002070BD10B500F502
:102350002F70016809B9032010BD4368002B1EBF10
:1023600001F500742078FF2804D062789B689847B4
:10237000FF202070002010BD4321018006487047D7
:10238000432101800548704743210180044870477C
:102390000A21018003487047980000205400002063
:1023A000DC0000201000002009B903207047C0F8AD
:1023B000C01200207047D0F8BC0208B90320704753
:1023C00000F502700160826000207047D0F8BC0206
:1023D00008B903207047C0F804120020704780B588
:1023E000D0F8BC1209B9032002BDD1F80422017C47
:1023F00000290CBF4FF400734023012100F00FFCB3
:10240000002002BD38B5040001D1012032BD00F02A
:1024100026F808B900F014F800F017F800F023F8D7
:10242000FFE7416100F001F832BD2068C16841F466
:102430000051C1600020686020216970A970704758
:10244000002129702046FFF766B9242068702068B3
:10245000C16821F40051C160204600F00EB804F1BB
:102460003C05687870472068016921F4904101615A
:102470002068416921F02A01704770B5044622683E
:102480001169E06821F4405101431161D368274884
:10249000A168034020690B4361690343E0690B4372
:1024A0000343D3605169A06921F440710143516134
:1024B0001F498A421CBF1F48824202D1FEF731FDEC
:1024C00001E0FEF726FD62682568E4691921B4F58C
:1024D000004FA1FB00016FF0630612D1D30F520031
:1024E000FFF7B8FB00F028F8F60032366420B6FBA0
:1024F000F0F0420002F4F87202EB011200F0070063
:1025000010E0930F9200FFF7A5FB00F015F83601DD
:1025100032366420B6FBF0F000F0F00202EB01125C
:1025200000F00F008018A86070BD0000F369FFFF85
:1025300000100140001401406421B0FBF1F106FBE2
:102540000106704738B5040001D1012032BD00F00A
:102550002AF818B900F023F8FFF772F9FFE7022014
:102560006870211D206800F0DFF80120A872A870B3
:10257000E87028716871A871E871287268726870D3
:10258000002032BD38B5040001D1012032BD00F079
:102590000AF818B900F003F800F0E1FDDFE70021C8
:1025A00029702046704704F13C056878704738B5BB
:1025B00000F057F801D1022032BD012084F83C0020
:1025C00032B1042A15D0082A25D00C2A34D044E090
:1025D000206800F0E6F82168886940F0080088610A
:1025E000886920F0040088618A69286902438A6149
:1025F00033E0206800F0FAF82068816941F4006156
:102600008161816921F48061816181692A6941EA7E
:102610000221816121E0206800F011F92168C86978
:1026200040F00800C861C86920F00400C861CA69A8
:1026300028690243CA6110E0206800F028F9206888
:10264000C16941F40061C161C16921F48061C16166
:10265000C1692A6941EA0221C161002084F83C0075
:1026600032BD04460D4694F83C000128704738B549
:1026700000F04EF801D1022032BD0120207002226C
:102680006270DFF84C022A68936803409360086820
:10269000020018BF10282DD0202818BF302829D0BC
:1026A000402823D0502816D0602818D0702803D096
:1026B000B0F5005F07D021E000F025F828688168B8
:1026C00041F0770105E000F01EF82868816841F4C8
:1026D0008041816012E000F012F850210BE0CA68DE
:1026E0004968286800F015F9602104E000F007F857
:1026F000402100E00146286800F01DF90EE0CA689C
:1027000049682868F6E0CB684A68896828681AE151
:10271000054605F13C0420780128704701206070CF
:1027200000212170002032BDF0B56A4B04686A4D6B
:102730006A4E6B4F984218BFB0F1804F04D0B84238
:102740001CBFB042A8420CD14A6824F07004144364
:10275000984218BFB0F1804F0ED0B84218BFB042B7
:102760000AD0A8421CBF5F4A904205D05E4DA842E5
:102770001CBF5E4A904203D1CA6824F440741443DB
:102780004A6924F080041443046098428C68C4624F
:102790000A68826202D10969554A116001234361C6
:1027A000F0BD70B5026A520852000262066A4468BF
:1027B00085690B688A6825F073051D4326F00206BB
:1027C0001643444B98420BD1CA684B6926F0080661
:1027D00024F4407416438A691C4326F0040614430B
:1027E0004460856149684163066270BD70B5026AE4
:1027F000384E22F010020262B042056A43688469D2
:102800000A6824F4E64444EA02248A6825F0200594
:1028100045EA02150DD1CA684E6925F0800545EAE2
:1028200002158A6923F44063164325F0400543EA04
:1028300086034360846149688163056270BD70B539
:10284000026A22F480720262056A4368C4690A68F7
:102850008E6824F0730414431E4A25F400759042D8
:1028600045EA06250DD1CA684E6925F4006545EA9A
:1028700002258A6923F44053164325F4806543EA10
:1028800006134360C4614968C163056270BD70B5D9
:10289000026A104E22F480520262B042046A426818
:1028A000C3690D6823F4E64343EA05238D6824F4E5
:1028B000005444EA053404D14D6922F4804242EACE
:1028C00085124260C36149680164046270BD000002
:1028D0008800FFFF00000140000C0040000800409D
:1028E0000004004000400140004401400048014015
:1028F0003000014010B5036A046A64086400046291
:1029000023F00A03846924F0F00444EA0214846189
:1029100023E010B5036A23F0100303628369046A9D
:1029200023F4704343EA023324F0A004836144EAB1
:102930000114046210BD826822F07002114341F05C
:1029400007018160704710B5846824F47F442143F7
:10295000114341EA0321816010BD1943016210BD9A
:1029600070B500F13C031A78012A01D1022070BD34
:1029700001221A7002245C7005686E68AC680A68EF
:1029800026F0700616436E6002680E48824218BF39
:10299000B2F1804F0BD00D4882421CBF0C4DAA42B1
:1029A00005D0094882421CBF0A4DAA4204D148689A
:1029B00024F08004044394600121597000201870B1
:1029C00070BD000000000140000C00400004004009
:1029D000000800400040014000B500BF13009646CB
:1029E0009446103928BFA0E80C50FAD85FEA417C21
:1029F00028BF0CC048BF40F8042BC90728BF20F8E7
:102A0000022B48BF00F8012B00BD000070470000FA
:102A100010B586B00446142101A8FEF755FF2268C0
:102A2000B2F1A04F30D10020834C009002222168E7
:102A300041F0010121604FF4C051206800F0010015
:102A4000009000987D480191029200210391032299
:102A50000A210591049201A9FEF70EFB606840F07F
:102A600080006060002100910022606940F4804095
:102A70006061606900F48040009000984320FEF798
:102A800005FC4320FEF71FFC06B010BD00F5717178
:102A9000D0F80404FFF71ABA0B461C225343C2189D
:102AA000D0F80404D2F80822FFF73EBA0B461C22E5
:102AB0005343C218D0F80404926CFFF768BAD0F8F8
:102AC0000404FFF7F4BA38B504460125E06808B9F4
:102AD000002503E0022818BFFEF7C2FAD4F8040468
:102AE0002946FFF7D0FAD4F80404BDE83240FFF7D6
:102AF0009ABA10B50446D4F80404FFF7C7FA206860
:102B000000F56060016841F001010160206A20B1B8
:102B10004B48016841F00601016010BDD0F8040483
:102B2000FFF7BCBAD0F80404FFF7DFBAD0F804040A
:102B3000FFF7CCBAD0F80404FFF7E6BAD0F80404E3
:102B4000FFF7E4BA10B5017839BB3E4CC4F8040471
:102B5000C0F8C4424FF0A0402060042100200222AF
:102B60002061E06120626062E06220636160E26097
:102B7000A261204600F0F4FA08B1FEF771FA802154
:102B8000204600F027FF40220021204600F001FFF0
:102B900080220121204600F0FCFE002010BD80B5FF
:102BA000D0F8C40200F044FBBDE802404FE010B58D
:102BB0001C461346D0F8C402224600F00CFEBDE8C5
:102BC000104044E080B5D0F8C40200F02FFEEBE7DF
:102BD00080B5D0F8C40200F074FEE5E780B5D0F807
:102BE000C40200F0A4FEDFE7D0F8C42201F07F03A6
:102BF0001C204343D018090602D590F83E007047C8
:102C000090F8FE01704780B5D0F8C40200F0D2FD04
:102C1000CAE780B5D0F8C40200F02BFEC4E780B547
:102C2000D0F8C40200F012FEBEE7D0F8C40200F0F3
:102C300018BE0548704700003038024000000240CE
:102C400010ED00E0841100205C1800207047014660
:102C5000002021B1022901D10120704703207047D3
:102C60004178007840EA0120704700002DE9F843E0
:102C70000F4600240646387810F0600006F52775E8
:102C800009D0202818BF402824D1EA69936830462B
:102C90009847044620E1797809291BD8DFE811F02C
:102CA000F900120180000C01800083000A008000FE
:102CB000E800A100ADF800407888010A012969D038
:102CC00002295BD0032925D006291BD0072904BF80
:102CD000307C002864D1E9690A6B68469047072177
:102CE0004170FA88002A00F0F580BDF80010002934
:102CF00056D0914288BF1146ADF800100146BDF88C
:102D00000020D5E0307C00284AD1E9694A6B68464A
:102D10009047E6E7C0B2052842D8DFE800F0282156
:102D20001A130B03A8698269002A39D0307C6946DE
:102D30009047D6E7A8694269002A31D0307C6946BD
:102D40009047CEE7A869026952B3307C6946904744
:102D5000C7E7A869C2681AB3307C69469047C0E7E4
:102D6000A8698268E2B1307C69469047B9E7A869F2
:102D70004268AAB1307C69469047B2E7307CE96985
:102D80000028684603D18A6A90470221A8E7CA6AE8
:102D90009047FAE7AA69307C136869469847A0E72C
:102DA00000F0ACF898E0B888002804BFF888002844
:102DB000F6D178888028F3D200F07F08287803289D
:102DC000EED085F8028041463046FFF71CFF00F048
:102DD00092F8B8F1000F07BF012129700220287076
:102DE0007AE0DFF8FC90788889F80000A04699F82E
:102DF0000040022C03D300F081F803246CE0287813
:102E000002281AD0032829D134B9022028700021C1
:102E1000716000F06DF81EE071688C421BD000F00C
:102E200066F800F05FF85FEA000814D000F066F87A
:102E3000716800F05CF802200BE064B100F052F819
:102E40005FEA000802D000F059F80FE000F053F8F4
:102E5000032028700AE000F04EF807E000F04EF87A
:102E600099F8001000F044F84FF00308444633E0AE
:102E7000F888012894D12978491E012904D9891E8E
:102E80008ED10122311D13E0B460012206F1080148
:102E90000EE02878401E022882D8FA88022AEFD154
:102EA0000121F160A86808B10321F16006F10C016D
:102EB000304600F024F90FE0788801280CD1012178
:102EC000A96007E02878401E0228E5D87A88012A00
:102ED00002D1AC6000F00FF82046BDE8F28300009C
:102EE000B41D0020746021463046FEF7DDBFC9B234
:102EF0003046FEF7E3BF304600F023B9394630468E
:102F0000CFE070B50E4604463078002510F0600022
:102F10001CBF2028402815D104F527721078401EC8
:102F200002280FD83379022B0CD2D269936820463D
:102F300098470546F08840B9280006D1204600F0A1
:102F400000F902E0204600F0ACF8284670BD2DE9FB
:102F5000F0410E46804631783079002411F060014E
:102F600008F5277704D0202939D0402964D136E0EC
:102F7000717800293AD0012914D003295CD13A781C
:102F8000022A15D0032A57D1718839B9002818BFF1
:102F9000802803D0F18809B900F06AF8404600F0B3
:102FA000D0F84DE03978022902D003290AD043E055
:102FB000002818BF80283FD000F05AF8802100F088
:102FC00058F83DE0718800293AD110F07F0203D013
:102FD00001464046FFF702FE404600F0B2F8FA69AB
:102FE0009368314640469847044629E0142200F091
:102FF0007F013F78514308EB0103022F03F5AA75C7
:1030000000F0800102D0032F0ED015E0002818BF79
:10301000802811D109B103F114052C600222294640
:10302000404600F06CF80BE000F00F0712FB07F2CF
:10303000424441B1918C81B93146404600F031F8AB
:103040002046BDE8F081B2F864110029F4D00028D0
:1030500018BF802804D1002008E003F11405F6E72A
:1030600001464046FFF7C0FD00B101202860D5E7CA
:1030700001464046FFF7ACBD38B50D4604462878FA
:103080002070A81C697861702D1DFFF7E9FD608034
:103090002846FFF7E5FDA080A81CFFF7E1FDE080D2
:1030A00031BD10B504468021FFF792FD2046BDE8F2
:1030B00010400021FFF78CBD00280B4600D170475F
:1030C00070B50021044600E0491C14F8015B002D96
:1030D000FAD10906C90D891C1180117819700322D3
:1030E0005A70022207E010F8011BD4B2521C195585
:1030F000D6B2521C9D5501780029F4D170BD80B51F
:1031000013460222C0F894228361C36101E080B5B6
:1031100013460A460021FFF77CFD002002BD80B562
:1031200013460322C0F8942200F5AC72136053607A
:1031300001E080B513460A460021FFF770FD00202C
:1031400002BD80B50421C0F8941200230022E1E7FB
:1031500080B50521C0F8941200230022ECE77047E7
:1031600070B504008AB04BD0266804F56F75687896
:1031700020B9002129702046FFF74AFC032068701F
:10318000F16BC8055CBF00212161206800F0CDFC17
:1031900083B000F048F80EBC206800F01FFC002847
:1031A0002CD12068002100F0C6FC00211C20002644
:1031B0000AE010FB01F222443C32012353701170EB
:1031C000D180002300F028F862689142F1D30021F9
:1031D00009E010FB01F2224402F5FE720023117097
:1031E000537000F019F862689142F2D383B000F096
:1031F0001AF80EBC206800F0B5FC18B10220687007
:10320000012007E084F8380001216970206800F08F
:1032100092FF00200AB070BD491CD6709360D66042
:103220005361C9B27047211D6846342201F050B87D
:1032300010B500F0ABFA01D1022010BD00F0ACFADD
:1032400000F06FFC20689BE22DE9F84F054684B042
:103250002C680194204600F0ADFF002840F08582E4
:1032600000F086FA002800F0808200F081FA8007E2
:1032700004D52868416901F00201416100F078FA43
:10328000C00632D52868816921F0100181611C20B7
:10329000266A06F00F014143681800F5FE77C6F371
:1032A000434002280FD147F6F070064218D0F96863
:1032B000C6F30A12204600F0E4FEF868C6F30A11CD
:1032C0000844F86007E006280AD1082205F5717164
:1032D000204600F0D6FEB969C6F30A104118B9615C
:1032E0002868816941F01001816100F041FA000312
:1032F00040F1B080286800F031FF00242E46050020
:103300004FF4004A48E0002C04BFD6F81002002811
:1033100009D106F571720021184600F05BFF02E04A
:1033200008B120208860E1B23046FFF7B5FB3807CE
:1033300020D50821C9F808103068DFF83C84D0F89F
:1033400040B000EB441101F53060C345816803D300
:10335000090448BFC0F808A03046FFF797FBC345F3
:1033600008D33069012805D1306806F57172012152
:1033700000F030FFF80644BF1021C9F80810B80665
:1033800044BF2021C9F80810B80444BF4FF40051CD
:10339000C9F80810641C6D085BD0E807FAD53068DE
:1033A000E1B200F0E9FE0746019800EB441000F599
:1033B0003069F807BBD50121C9F808103368D3F884
:1033C00040C003EB441101F530618A68D6F810E083
:1033D000BEF1010F02F0200030D1130706D5DFF84F
:1033E00098038445A3D3120430D4A0E710B1202061
:1033F00088609CE712F0280F99D1DFF87C038445A0
:1034000001D3120422D41C206043304400F5017023
:1034100002680969C1F31201521A0261002C416865
:1034200002680A44426004BFD6F8100200287FF404
:103430007AAF306806F5717201216EE7DFF83CE380
:10344000F4457FF460AF12047FF56AAFC1F808A0BD
:103450006DE7354600F08CF9400340F1A480286800
:1034600000F083FE06460198002400F500600390FA
:10347000002E34E0D7F808B0411A8B4588BF8B4640
:103480000BF103004FEA900A2869C0B200901FFABE
:103490008BF3F968E2B2484600F0E1FDF868B969DB
:1034A00058448B44F860C7F818B009EB441000F595
:1034B0001060816989B2514505D37869B969814243
:1034C00001D20028D6D1B8697969884205D309F5B7
:1034D0000062516B029801405163641C760862D00F
:1034E000F007FAD52868E1B200F051FE8046019855
:1034F00000EB441000F510691C22012104F00F00BC
:1035000062438140AF18C9435FEAC87002911DD57C
:1035100003994A6B029802404A630120C9F80800E7
:10352000296901290ED1B86C796C0144B964002C69
:1035300004BF286D002805D1286805F571720121A6
:1035400000F048FEE1B22846FFF7B0FA5FEA0870E3
:1035500044BF0821C9F808105FEAC86044BF1021C1
:10356000C9F808105FEA486044BF4021C9F8081054
:103570005FEA887044BF0221C9F808105FEA08605A
:10358000ABD53C37B8697969D5F800908142A4D3AE
:10359000D7F808A0081A824588BF82460AF10300BE
:1035A0004FEA900A81E72868019C00F0D2FD0028CC
:1035B00004F5006416D5616849084900616095F812
:1035C000F403012806D1002185F8F413284600F001
:1035D0008BFE02E02846FFF7A1FA2868416901F056
:1035E0000041416100F0C4F800050AD5A168C80790
:1035F00044BF2846FFF77DFA2868416901F400615D
:10360000416100F0B5F8C00453D56168490849002C
:1036100061601021286800F04FFB019800214FF6EF
:103620007F3218E000EB411303F5106603F53063B9
:10363000B260491C376827F400173760376847F0D5
:10364000006737609A601E6826F400161E601F68C7
:1036500047F000671F606B689942E3D3E06940F070
:103660000110E061286B50B1D4F8840040F00B00E9
:10367000C4F88400606C40F00B00606409E060698D
:1036800040F4005040F02B006061206940F00B00D6
:10369000206105F57172206820F4FE6020602969C0
:1036A0002868C9B200F096FD2868416901F480518C
:1036B000416100F05DF8800416D5286800F07EFDB9
:1036C000286800F01CFBE860FDF720FC0146EA6872
:1036D0002868D2B200F0BEF92846FFF7F4F928684E
:1036E000416901F40051416100F042F8000707D53B
:1036F0002846FFF7E4F92868416901F008014161B3
:1037000000F036F8C00208D500212846FFF70EFA6F
:103710002868416901F48011416100F029F88002B4
:1037200008D500212846FFF7FDF92868416901F412
:103730000011416100F01CF8400007D52846FFF752
:10374000F9F92868416901F08041416100F010F801
:1037500040070AD529684C68600744BF2846FFF730
:10376000EDF9286841680C43446005B0BDE8F08F6E
:10377000286800F0EEBC00000B30544F0A31544F63
:1037800000F0CDFC002084F8BC0310BD044694F882
:10379000BC232068012A7047A36A0122012B84F808
:1037A000BC2306D1A269012A03D0826B42F4803285
:1037B0008263704710B5044694F8BC03012801D118
:1037C000022010BD012084F8BC0384F83810206862
:1037D00000F097FCD6E738B5054601F00F041C2031
:1037E000444328190C0647BF00F13C04012000F5B2
:1037F000FE74002001F00F0160702170A260E37080
:10380000607808B12178E180022B04BF002020718C
:1038100095F8BC03012801D1022032BD012085F8B2
:10382000BC032146286800F078FA7CE010B5044615
:1038300001F00F0200F09FF800F090F801D1022093
:1038400010BD00F092F800F09FFA9BE738B500F049
:1038500026F803F5FE73002500F028F808BF1A616A
:1038600010E001F00F011C2251430844D0F814026B
:10387000704738B500F013F83C33012500F016F816
:1038800008BF1A61026900680029D2B2194602D144
:1038900000F081FB01E000F0D0FA002032BD1C46B0
:1038A00001F00F051C235D43431970475C6101F073
:1038B0000F0100249C61DA605D7019700469012CAD
:1038C000704738B505460C46696804F00F00814220
:1038D00001D2012032BD1C21220605D548432844CF
:1038E00000F13C01012005E011FB04F1681800F52E
:1038F000FE710020487001228A7004F00F040C70E1
:1039000095F8BC03012801D1022032BD85F8BC2303
:10391000286800F0C5FB34B92969286805F571727B
:10392000C9B200F057FC002085F8BC0332BD10B5C9
:10393000044601F00F026068904201D2012010BDE0
:1039400000F019F80023837000F008F801D102207C
:1039500010BD00F00AF800F0BBFB13E701F00F0107
:10396000017094F8BC1301297047012284F8BC232C
:103970000146206870471C204243A0180A0603D560
:103980003C3001234370704700F5FE700022427006
:10399000704770B50068436A0C0003D143EA0242E5
:1039A000826215E0846A03EB1443002406E000EB16
:1039B0008505641CD5F8046103EB1643E5B24E1E81
:1039C000B542F4D300EB810043EA0242C0F8002183
:1039D000002070BD00684162002070470EB418B529
:1039E00004460898012817D1A06B20F48030A0630A
:1039F000E168DFF850080140E160E16821F440111E
:103A0000E1600F98012803D1E06840F48010E06085
:103A1000204600F001FC0FE0E06840F04000E0606C
:103A2000204600F0F9FB0C990029A16B0CBF41F472
:103A3000803121F48031A1630699012907D1A16861
:103A400041F00601A160A16841F02001A16012BC13
:103A50005DF810FB10B5022A58D1DFF8EC27DFF82B
:103A6000EC3752189A4238BF4FF4705150D3DFF8F8
:103A7000E027DFF8E03752189A4238BF4FF4605120
:103A800046D3DFF8D427DFF8D43752189A4238BF2C
:103A90004FF450513CD3DFF8C827DFF8C83752182D
:103AA0009A4238BF4FF4405132D3DFF8BC27DFF8D9
:103AB000BC3752189A4238BF4FF4305128D3DFF840
:103AC000D027DFF8D03752189A4238BF4FF4205130
:103AD0001ED3DFF8C427DFF8C43752189A4215D333
:103AE000DFF8BC47DFF8BC276418944238BF4FF4B6
:103AF00000510DD3DFF8B027DFF8B03751189942E5
:103B00002CBF4FF4C0514FF4E05101E04FF410517D
:103B1000C26822F47052C260C2681143C1600020C2
:103B200010BD816841F0010102E081684908490047
:103B300081600020704780B5C26822F0C042012930
:103B4000C26008D1C16841F00051C160322000F06C
:103B5000CDFB002002BD19B9C16841F08041F4E7F6
:103B6000012002BD0EB42DE9F043054604460026AF
:103B70000021002004EB8102491C0F29C2F8040136
:103B8000F8D3DDF84490B9F1000F05F500670AD1CC
:103B9000786840F002007860A06B40F40010A063E9
:103BA00000F06DFB06E0A06B20F40010A063A06B9A
:103BB00040F4002005F56061A0630E603A683A6049
:103BC0000C98012805D1099A002A14BF012100216F
:103BD00000E00321204600F08DF81021204600F07F
:103BE0006BF800B10126204600F076F800B10126FE
:103BF0000020386178612A46F8614FF67F334FF034
:103C0000904C4FF0006E002503E00D600D618B605D
:103C1000401C0799884211D202EB401101F5106156
:103C2000D1F80080B8F1000FEFD5002806BF02F5EB
:103C30001068C8F800E0C1F800C0E7E7002003E022
:103C40000D600D618B60401C0799884211D202EB18
:103C5000401101F53061D1F80080B8F1000FEFD5C7
:103C6000002806BF02F53068C8F800E0C1F800C0BF
:103C7000E7E7386920F480703861A5616FF0804013
:103C800060610A9800F0F4FADFF824060143A161AC
:103C90000D9818B1A06940F00800A061B9F1010FBA
:103CA00005D1A06940F0804040F00400A06130469A
:103CB000BDE8F0035DF810FB890141F020010161CE
:103CC000DFF8F015491E03D002699306FAD401E02B
:103CD000032070470020704710210161DFF8D415E0
:103CE000491E03D00269D306FAD401E003207047CD
:103CF0000020704700F50060026811430CE200F5F7
:103D00000060806810F0060006D0022818BF062860
:103D100001D1022070470F20704770B50C784E78A3
:103D20002546012304F00F0400EB451203FA04F4C6
:103D3000012E00F50060DFF880350DD1C669A4B210
:103D4000344302F51062C4611068040411D400F019
:103D500012F840EA85500AE0C56945EA044502F5D3
:103D60003062C5611068040403D400F004F8034312
:103D70001360002070BD10688C68C978C4F30A0411
:103D8000204340EA8140704730B500F03FF80FD142
:103D900000F045F800F023F8ADB2AC4300F026F88F
:103DA0009BB224EA0303D3610268DFF8101512E026
:103DB00000F530600468002C01D500F01EF800F01A
:103DC0000EF824EA054400F011F824EA0344D46113
:103DD0000268DFF8EC140A400260002030BDD46BAA
:103DE0000D7805F00F0503FA05F57047D463D46923
:103DF000097801F00F018B407047046844F00064BB
:103E00000460056845F08045056070470B784C7884
:103E100000F5006200EB43100123012C704700F510
:103E200010600468002C07D5046844F00064046046
:103E3000056845F0804505607047F8B50B78DFF8F8
:103E40008464DFF8847400EB43154B78012B00F594
:103E5000006460D14B6905F51065002B2B6909D111
:103E60001F402F612E6946F400262E612B69DB0C62
:103E7000DB0422E0DB0CDB042B612B691F402F618C
:103E80008B682F69D1F814C09C44ACF1010CBCFBC9
:103E9000F3F306EAC3463E432E612B694E69C6F32F
:103EA000120633432B61CB78012B07D12B6923F00A
:103EB000C0432B612B6943F000532B61012A03D1CE
:103EC0000869002852D050E02B6843F004432B606F
:103ED000CE78012E0BD0486900285AD0606B097843
:103EE000012201F00F018A401043606351E0A36892
:103EF000DC0504D42B6843F000532B6003E02C68EE
:103F000044F080542C6000920A784B69C9689BB2D7
:103F100000F0A5F83DE005F530652869C00CC00447
:103F20002861286907402F618B68486940B9286972
:103F3000C3F3120303432B61286940F400200FE010
:103F40001818401EB0FBF3F080B22B6906EAC04699
:103F50001E432E612B698E687043C0F31200184314
:103F6000012A286102D1C86800B16861C8780128B7
:103F70000BD1A068C10504D4286840F00050286027
:103F800003E0296841F080512960286840F004402E
:103F900028600020F2BD30B50B78DFF82C5300EB21
:103FA00043144B78012B38D14B6904F51064002B76
:103FB000236909D11D402561256945F40025256146
:103FC0002369DB0CDB0414E0DB0CDB0423612369D5
:103FD0001D4025618B684D69AB4288BF2B464B6104
:103FE000236943F40023236123694D69C5F3120556
:103FF0002B43012A236101D1086928E0236843F09B
:10400000044323604A6942B300F500600123426B18
:10401000FFF7EEFE1A4342631FE004F530642069A7
:10402000C00CC004206123691D402561486908B1A6
:1040300088684861206940F40020206120698B680D
:10404000C3F312031843012A206102D1C86800B1EA
:104050006061206840F004402060002030BDB8B5A9
:10406000059C64B9DB1C07E000EB023751F8045BE8
:1040700007F58057641C3D60B4EB930FF4D3002028
:10408000B2BD10B5D21C002305E000F580545B1CC6
:10409000246841F8044BB3EB920FF6D3084610BDE9
:1040A0000A78497800EB421001290CBF00F5106036
:1040B00000F530600168002904D41AB1016821F0CC
:1040C00080410160026842F40012026000207047E3
:1040D0000A7800EB42104A78012A0CBF00F5106004
:1040E00000F53060026822F400120260C9780329EA
:1040F00018BF022903D1016841F0805101600020FE
:10410000704700F500600901026822F4FE62026057
:1041100001F4FE610368194301600020704700F557
:10412000606100F500600A68920892000A604168C8
:1041300021F002010AE000F5606100F500600A6804
:10414000920892000A60416841F00201416000203B
:1041500070470146486989690840704700F5006169
:104160008869C9690840000C704700F500618869DA
:10417000C969084080B27047024602EB411000F561
:10418000306002F50062806851690840704702465D
:1041900002F5006302EB411218695B6B01F00F013D
:1041A00002F51062CB40DB01926803F080031843F4
:1041B00010407047406900F00100704700F5106141
:1041C00000F500600A68D20AD2020A60416841F430
:1041D0008071BBE710B5036CDFF8F040A34200F537
:1041E000306002D30368002B14D40023036101293B
:1041F000046944F400240461036943F01803036173
:10420000036943F0C043036104D14261016841F096
:1042100080210160002010BDDFF898201146491E62
:104220000CD00369002BFAD5016941F0010101614D
:10423000521E03D00169CB07FAD401E00320704776
:1042400000207047BFFFBDFF405327FF00350C0023
:10425000401E1BFF40420F0000DC0BFF804F12008E
:10426000808CF9FE20D6130060B6E5FE60E31600F0
:1042700018B9A06940F01000A061A1697047A06B57
:1042800020F40020A063A06B20F480207047000081
:1042900000D3CEFE40771B00C05BB3FEC09121006F
:1042A00000CA91FE20753800E05459FEE09C4100A0
:1042B00000383C80410D030000800010007833EC92
:1042C0000078F3EF0000F81FFFFF07E00B30544FBA
:1042D0004AB1000011F8013B521E00F8013B1CBF1F
:1042E00011F8013BF8E770477047000038B5044605
:1042F000FDF714F814F1010F054602D004480178C7
:104300006418FDF70BF8401BA042FAD331BD00BF83
:1043100000000020122008801A48704704200880FE
:10432000194870472DE9104000F028F827A004E054
:104330002DE9104000F022F82AA02146FEF7BCFE2D
:10434000204610BD38B51A20088010494C6808680E
:1043500089680F4D081809D00822A91C00F022F81E
:10436000042205F11201204600F01CF8284632BD57
:104370002DE9104000F002F81FA0DEE70A46054CC8
:10438000704700005001002064010020107AFF1FD8
:10439000680100207C1A00202DE91040FFF7EEFF95
:1043A00018A0CAE730B500230CE0040F0A2C2CBF7C
:1043B0003734303401F8134001EB43050024000189
:1043C0006C705B1C9342F0DB30BD000053544D33E6
:1043D00032205669727475616C20436F6D506F7234
:1043E0007400000053544D6963726F656C656374AB
:1043F000726F6E696373000043444320436F6E66BF
:104400006967000043444320496E746572666163C6
:1044100065000000F0B402461068956813185068F3
:1044200003EB5004C0071CD54D441AE013F8017B80
:1044300005F8017B491EF9D198B113F8011BC6F3A9
:104440008106032E08BF13F8016B01EB06214942D8
:10445000801C294405D011F8016B05F8016B401E42
:10446000F9D1A3420ED013F8016B16F0030104BF7B
:1044700013F8011BC91C30090F28DBD113F8010BFD
:104480000F30D7E7F0BC02F10C00704738B50E4C86
:104490000E4D002205F500612046FDF78CFF2946F0
:1044A0002046FDF793FF002032BD0020704700201A
:1044B000704710B50146044C2046FDF787FF2046A3
:1044C000FDF78DFF002010BD8C1500208401002019
:1044D00000207047FEE7FEE7FEE7FEE7FEE77047D5
:1044E0007047704700F014B880B52020FCF798FEA4
:1044F000BDE802404FF48070FCF792BE0248FBF723
:10450000FFBE0248FEF7A0BED41C0020841100208C
:104510000248416802788A18426070470000002013
:1045200030B4002512E050F8042BD30744BF4A44AE
:10453000521E091F042942F8045BFAD213468C0765
:1045400044BF15809B1CC90748BF1D7050F8041B51
:104550000029E8D130BC704710B5074979441831BB
:10456000064C7C44163404E00A68081D1144884750
:104570000146A142F8D110BD2C0000004800000007
:104580004EF68851CEF20001086840F470000860D1
:10459000BFF34F8FBFF36F8F4FF00070E1EE100A43
:1045A000704700007DFFFFFF341C000084010020E5
:1045B0000000000061FEFFFF7C010000AC01000074
:1045C000000000200248016841F47001016070475A
:1045D00088ED00E00000000000000000010203047C
:1045E0000607080900F00DF8002801D0FFF7B4FF16
:1045F000AFF300800020AFF30080FCF7CBFC00F0AD
:1046000002F80120704700F001B800000746384664
:1046100000F002F8FBE7000080B5AFF30080024A2B
:1046200011001820ABBEFBE726000200054801463A
:1046300003B4684680F30988AFF30080FFF7A0FF5A
:10464000FFF7D0FFA5EDF5FE014880470148004780
:10465000C54500082D4600080000000001020304C3
:10466000FFF7FEBFFFF7FEBFFFF7FEBFFFF7FEBF7E
:10467000FFF7FEBFFFF7FEBFFFF7FEBFFFF7FEBF6E
:10468000FFF7FEBFFFF7FEBFFFF7FEBFFFF7FEBF5E
:10469000FFF7FEBFFFF7FEBFFFF7FEBFFFF7FEBF4E
:1046A000FFF7FEBFFFF7FEBFFFF7FEBFFFF7FEBF3E
:1046B000FFF7FEBFFFF7FEBFFFF7FEBFFFF7FEBF2E
:1046C000FFF7FEBFFFF7FEBFFFF7FEBFFFF7FEBF1E
:1046D000FFF7FEBFFFF7FEBFFFF7FEBFFFF7FEBF0E
:1046E000FFF7FEBFFFF7FEBFFFF7FEBFFFF7FEBFFE
:1046F000FFF7FEBFFFF7FEBFFFF7FEBFFFF7FEBFEE
:10470000FFF7FEBFFFF7FEBFFFF7FEBFFFF7FEBFDD
:10471000FFF7FEBFFFF7FEBFFFF7FEBFFFF7FEBFCD
:10472000FFF7FEBFFFF7FEBFFFF7FEBFFFF7FEBFBD
:10473000FFF7FEBF43010001221008100524F4001A
:104740000A0600020B224018100329210008C304A6
:1047500020020D2200081F134D2310110C432523A6
:10476000106101128110127904128904129104104F
:104770000D09024300020100C032090400000102D9
:104780000B101E0524001001052401000104240261
:104790000205240600010705820308001009040130
:1047A00000020A4E1002070501027B200107058165
:1047B00007F2280044224007228107200100090750
:1047C00044F22C044410038D440008AB0412AF04DF
:1047D00012B30412D1041003154300081D04123152
:1047E000041225041245041271041299041212478E
:1047F000100602020040830440577D17020349F06F
:0A4800000508040309041A0300016F
:040000050800462D7C
:00000001FF
